:020000040800F2
:1000000000000220452900081D16000829160008D6
:1000100031160008391600084116000800000000DB
:100020000000000000000000000000004916000869
:100030005516000800000000611600086D16000843
:10004000A5290008A5290008A5290008A529000858
:10005000A5290008A5290008A5290008A529000848
:10006000A5290008A5290008A5290008A529000838
:10007000A5290008A5290008A5290008A529000828
:10008000A5290008A5290008A5290008A529000818
:10009000A5290008A5290008A5290008A529000808
:1000A000A529000889150008A5290008A529000828
:1000B000A5290008C1140008A5290008A5290008E1
:1000C000A5290008A5290008A5290008A5290008D8
:1000D000A5290008A5290008A52900082115000860
:1000E000A5290008A5290008A5290008A5290008B8
:1000F000A5290008A5290008A5290008A5290008A8
:10010000A5290008A5290008A5290008A529000897
:10011000A5290008A5290008A5290008A529000887
:10012000A5290008A5290008A5290008A529000877
:10013000A5290008A5290008A5290008A529000867
:10014000A5290008A5290008A5290008A529000857
:10015000A5290008A5290008A5290008A529000847
:10016000A5290008A5290008A5290008A529000837
:10017000A5290008A5290008A5290008A529000827
:08018000A5290008A5290008CB
:1001880008B540F22000074BC2F200001B1A062BEC
:1001980000D808BD40F20003C0F20003002BF8D0DD
:1001A8009847F6E72300002008B540F2200040F207
:1001B8002003C2F20000C2F200031B1A9B1003EBDB
:1001C800D373591000D108BD40F20002C0F20002FA
:1001D800002AF8D09047F6E710B540F22004C2F2A2
:1001E8000004237873B9FFF7CBFF40F20003C0F295
:1001F80000032BB142F6CC10C0F60000AFF300802C
:100208000123237010BD00BF08B540F20003C0F2FF
:1002180000034BB142F6CC1040F22401C0F60000B6
:10022800C2F20001AFF3008040F21C00C2F20000ED
:1002380003682BB140F20003C0F2000303B19847F2
:10024800BDE80840FFF7B0BF80B582B000AF4FF0FF
:100258002D0001F021FB0346FB714FF02D0001F04A
:100268001BFB0346FB714FF02C0001F015FB034606
:10027800BB714FF02C0001F00FFB0346BB71FB79FB
:100288004FEA03239AB2BB799BB203F0C0039BB237
:1002980013439BB29BB203F140039BB2BB80B7F9F7
:1002A80004304FEAA313BB80B7F90420064B1A6049
:1002B800064B1A68044B1B68D218044B1A6007F1E6
:1002C8000807BD4680BD00BF74010020F000002073
:1002D80080B500AF00F01CF800F042F880BD00BF08
:1002E80080B500AF094B4FF000029A61074B4FF001
:1002F8000002DA614FF0040001F0DAFC0246034B19
:100308001A62024B4FF000025A6280BD740100204D
:1003180080B483B000AF0F4B9B899BB21AB20D4BD0
:100328009A600D4B5B6A9AB20A4B9A81094B9B897A
:100338009BB21AB2074B9B68D31A7B60074BDA68EB
:100348007B68D218054BDA6007F10C07BD4680BC04
:10035800704700BF7401002000040140F000002035
:1003680080B483B000AF0F4B9B8A9BB21AB20D4B7F
:100378001A610D4B5B6A9AB20A4B9A82094B9B8AA7
:100388009BB21AB2074B1B69D31A7B60074B5A6999
:100398007B68D218054B5A6107F10C07BD4680BC33
:1003A800704700BF7401002000000140F0000020E9
:1003B80080B500AFFFF748FFFFF78AFFFFF790FF10
:1003C80080BD00BF80B485B000AFF860B9607A60C6
:1003D800BA687B68D21AFB689A4208DCBA687B68FC
:1003E800D218FB689A4202DB4FF0010301E04FF09C
:1003F8000003184607F11407BD4680BC704700BFCC
:1004080080B483B000AF78607B684FF0FF321A6524
:100418007B684FF000025A6507F10C07BD4680BCA7
:10042800704700BF80B485B000AF786013460A46B5
:100438007A807B70B7F90230BB607B783B737B684E
:1004480007F1080292E8030083E80300786807F1DF
:100458001407BD4680BC704780B483B000AF786095
:100468007B681B6D03F101027B681A6507F10C07B5
:10047800BD4680BC704700BF80B487B000AFF8604D
:100488000B467A60FB72FB7A3B757B683B61FB68C5
:100498005B6DFA684FEAC303D31807F1100292E8BC
:1004A800030083E80300FB685B6D03F10102FB684E
:1004B8005A6507F11C07BD4680BC704780B485B0FB
:1004C80000AF786039603B681B6D396807F1080236
:1004D8004FEAC303CB1893E8030082E803007B6864
:1004E80007F1080292E8030083E80300786807F13F
:1004F8001407BD4680BC704780B483B000AF7860F5
:100508007B681A6D7B685B6D9A4202DA4FF00003D4
:1005180001E04FF00103184607F10C07BD4680BC07
:10052800704700BF82B090B587B000AFF860B9607F
:100538007A60FB62BA68FB68D31A184601F092FF2A
:1005480003467B617B687A691A607B685B6818463A
:10055800796901F0D3FE03461A467B685A607B68C6
:100568001B697869194601F0C7FE03461A467B687D
:100578009A607B685B68184600F056F802467B680C
:100588005A607B681A68FB6A1046194601F0BEFF7C
:1005980003461C467B685A683B6B1046194601F0B7
:1005A800B5FF03462046194601F0A8FE03461C463F
:1005B8007B689A687B6B1046194601F0A7FF0346D3
:1005C8002046194601F09AFE03463B617B687A692A
:1005D8001A61386902F060F90346184607F11C07EA
:1005E800BD46BDE8904002B0704700BF80B485B0FA
:1005F80000AF78604FF47A73FB607A68FB689A42C0
:1006080001DDFB687B60FB68C3F100027B689A42EE
:1006180003DDFB68C3F100037B607B68184607F1C4
:100628001407BD4680BC704780B582B000AF7860C3
:1006380078680B4902F026F90346002B01D0084BD5
:100648007B607868074902F0FFF80346002B01D069
:10065800044B7B607B68184607F10807BD4680BDE0
:1006680000007A4400007AC480B400AF234B4FF0F6
:100678007C521A60214B4FF000025A601F4B4FF01A
:1006880000029A601E4B4FF000021A601C4B4FF09C
:1006980000025A601A4B4FF000029A60194B4FF053
:1006A80000021A60174B4FF000025A60154B4FF0CA
:1006B80000029A60144B154A1A60134B144A5A6088
:1006C800114B144A9A60144B4FF07C521A60124B2B
:1006D800124A5A60104B4FF07F529A60104B4FF0FD
:1006E80000029A600E4B4FF000029A810C4B4FF0BB
:1006F80000021A60BD4680BC704700BFE4000020BD
:10070800C4000020840000205C0100208FC2154135
:100718000AD7233C5C8F2A41900000208FC2753D88
:100728007401002080B582B000AF1748FFF7E4FEDF
:100738000346002B08D0154B144A526922F4004294
:100748005A6101F01BFA1AE03B4618460E49FFF7BA
:10075800B5FE3B79002B08D14FF0000000F042F8BD
:100768000346002B01D000F013F83B79012B06D18A
:1007780000F090F80346002B01D000F009F807F1CB
:100788000807BD4680BD00BF9C0100200000024054
:1007980080B582B000AF1148FFF75EFE3B461846B1
:1007A8000E49FFF78BFE3B79002B0DD10C4B4FF018
:1007B80000025A610A4B4FF00002DA603A68084BAF
:1007C8001A613A68064B9A603B79012B02D13A6864
:1007D800034B5A6007F10807BD4680BD9C01002005
:1007E800F000002080B588B000AF0346FB714FF0E1
:1007F800000000F0F3FCF8614FF0010000F0EEFC9F
:10080800B861234B1A69224B5B69D31A7B61204B71
:100818009A681F4BDB68D31A3B61FB79184600F0D6
:10082800A3FCF86078694FF000014FF00F02FFF762
:10083800C9FD0346002B0ED038694FF000014FF078
:100848000F02FFF7BFFD0346002B04D001F096F915
:100858004FF0010317E0FB68002B09DABA69FB685F
:10086800D31A184601F040F9F86901F021F908E0B7
:10087800B86901F039F9FA69FB68D318184601F02C
:1008880017F94FF00003184607F12007BD4680BD51
:10089800F000002080B582B000AF00F0C5FB7860A2
:1008A800244B5A68234B1B68D31A3B6078684FF077
:1008B80000014FF01E02FFF785FD0346002B28D0EC
:1008C80038684FF000014FF01E02FFF77BFD03462A
:1008D800002B1ED001F052F9786817494FF00A0230
:1008E80000F0DAF90346184601F02EFC134801F02F
:1008F8002BFC386810494FF00A0200F0CDF9034686
:10090800184601F021FC0E4801F01EFC4FF00003D0
:100918000AE0786801F0CCF87B68C3F10003184658
:1009280001F0E2F84FF00003184607F10807BD464A
:1009380080BD00BFF000002050010020A829000859
:10094800AC29000880B500AF00F05CF800F002F8B0
:1009580080BD00BF80B400AF274B274A126B42F01E
:1009680001021A63244B244A526C42F001025A6471
:10097800224B224A926842F420229A601F4B1F4A57
:10098800126842F420221A601C4B1C4A526A42F038
:1009980011025A621A4B4FF001021A85184B4FF692
:1009A800FF72DA62164A164B1B8B9BB243F48073B4
:1009B80043F001039BB21383114B114A128C92B27C
:1009C80042F0200292B21A840D4B0D4A128992B25B
:1009D80042F0030292B21A81094B094A128892B274
:1009E80042F0010292B21A80054B4FF00A025A6295
:1009F800BD4680BC704700BF00380240000002407E
:100A08000000014080B400AF274B274A126B42F028
:100A180004021A63244B244A526C42F002025A64BC
:100A2800224B224A926842F420429A601F4B1F4A86
:100A3800126842F420421A601C4B1C4A126A42F0A7
:100A48004C521A621A4B4FF001021A85184B4FF696
:100A5800FF72DA62164A164B1B8B9BB243F4807303
:100A680043F001039BB21383114B114A128C92B2CB
:100A780042F0200292B21A840D4B0D4A128992B2AA
:100A880042F0030292B21A81094B094A128892B2C3
:100A980042F0010292B21A80054B4FF00A025A62E4
:100AA800BD4680BC704700BF0038024000080240C5
:100AB8000004014080B400AF054B4FF000025A62B9
:100AC800044B4FF000025A62BD4680BC704700BF1D
:100AD800000401400000014080B400AF234B234ACA
:100AE800126B42F001021A63204B204A126C42F04A
:100AF80008021A641E4B1E4A126842F002021A606B
:100B08001B4B1B4A126A42F002021A62194B4FF43D
:100B18007A721A85174B4FF000025A63154B4FF43F
:100B28007A72DA62134B134A128B92B242F0600265
:100B380092B21A830F4B0F4A128C92B242F0010202
:100B480092B21A840B4B0B4A128892B242F080027E
:100B580092B21A80074B074A128892B242F00102F9
:100B680092B21A80BD4680BC704700BF0038024070
:100B780000000240000C004080B483B000AF034680
:100B8800FB80044BFA88DA6207F10C07BD4680BC8B
:100B9800704700BF000C004080B483B000AF03462C
:100BA800FB80044BFA885A6307F10C07BD4680BCEA
:100BB800704700BF000C004080B400AF234B234AAD
:100BC800126B42F001021A63204B204A126C42F069
:100BD80008021A641E4B1E4A126842F008021A6084
:100BE8001B4B1B4A126A42F020021A62194B4FF43F
:100BF8007A721A85174B4FF000029A63154B4FF41F
:100C08007A72DA62134B134A128B92B242F4C042E0
:100C180092B21A830F4B0F4A128C92B242F0100212
:100C280092B21A840B4B0B4A128892B242F080029D
:100C380092B21A80074B074A128892B242F0010218
:100C480092B21A80BD4680BC704700BF003802408F
:100C580000000240000C004080B483B000AF03469F
:100C6800FB80044BFA88DA6207F10C07BD4680BCAA
:100C7800704700BF000C004080B483B000AF03464B
:100C8800FB80044BFA889A6307F10C07BD4680BCC9
:100C9800704700BF000C004080B588B000AFF86016
:100CA800B9607A60BB68BB614FF00003FB617B6889
:100CB800012B3DDD7B68102B3ADC7B680A2B08D1C1
:100CC800FB68FB61FB69002B03DAFB68C3F10003D7
:100CD800FB60FA687B6892FBF3F37B61FB687A68D8
:100CE80093FBF2F2796801FB02F29B1A3B61154A09
:100CF8003B69D3181A78BB681A70BB6803F1010303
:100D0800BB607B69FB60FB68002BE2D1FB69002BB1
:100D180007DABB684FF02D021A70BB6803F10103B4
:100D2800BB60BB6803F1FF33B869194600F00CF8E3
:100D3800BB684FF000021A70BB69184607F120071C
:100D4800BD4680BDB029000880B485B000AF78608A
:100D5800396011E03B681B78FB737B681A783B6845
:100D68001A703B6803F1FF333B607B68FA7B1A70AB
:100D78007B6803F101037B603A687B689A42E9D893
:100D880007F11407BD4680BC704700BF80B500AFAF
:100D9800124B124A126842F001021A600F4B4FF0D0
:100DA80000029A600D4A0D4B1B6823F0847323F4EC
:100DB80080331360094B0A4A5A60084B074A126885
:100DC80022F480221A60054B4FF00002DA6000F02E
:100DD80093F8044B4FF000629A6080BD00380240DF
:100DE8001030002400ED00E080B487B000AF4FF071
:100DF80000033B614FF000037B614FF00203FB608F
:100E08004FF00003BB604FF002037B60354B9B68DB
:100E180003F00C033B613B69042B07D0082B09D076
:100E2800002B45D1304B314A1A6045E02E4B304AF1
:100E38001A6041E02B4B5B6803F480034FEA93533D
:100E4800BB60284B5B6803F03F037B60BB68002BEB
:100E58000ED0274A7B68B2FBF3F2224B596847F65B
:100E6800C0730B404FEA931303FB02F37B610DE061
:100E78001E4A7B68B2FBF3F21A4B596847F6C073F7
:100E88000B404FEA931303FB02F37B61154B5B683E
:100E980003F440334FEA134303F101034FEA4303DA
:100EA800FB607A69FB68B2FBF3F20F4B1A6003E050
:100EB8000D4B0E4A1A6000BF0A4B9B6803F0F00303
:100EC8004FEA13130B4AD35CDBB23B61064B1A683B
:100ED8003B6922FA03F2044B1A6007F11C07BD466E
:100EE80080BC704700380240040000200024F40051
:100EF80040787D010800002080B483B000AF4FF037
:100F080000037B604FF000033B60374B364A1268A2
:100F180042F480321A60344B1B6803F400333B60A0
:100F28007B6803F101037B603B68002B03D17B687E
:100F3800B3F5A06FEFD12C4B1B6803F40033002BE3
:100F480003D04FF001033B6002E04FF000033B6029
:100F58003B68012B42D1244B234A126C42F0805249
:100F68001A64224B214A126842F480421A601E4BCE
:100F78001D4A92689A601C4B1B4A926842F40042D0
:100F88009A60194B184A926842F4A0529A60164B1C
:100F9800174A5A60144B144A126842F080721A6059
:100FA80000BF114B1B6803F00073002BF9D0114BE5
:100FB80040F205621A600C4B0B4A926822F0030259
:100FC8009A60094B084A926842F002029A6000BF90
:100FD800054B9B6803F00C03082BF9D107F10C07AC
:100FE800BD4680BC704700BF00380240007000401A
:100FF80008544007003C024080B483B000AF7860DA
:101008007B68642B02DD4FF0640307E07B6813F113
:10101800640F02DA6FF0630300E07B68184607F19B
:101028000C07BD4680BC7047B0B584B002AF0E4B0C
:101038001C680D4B5A680D4B6D4603F1040103C93A
:1010480085E803001B6820461146094AFFF76AFA3B
:1010580078607868FFF7D0FF78607B68184607F1FA
:101068000807BD46B0BD00BFF0000020900000207A
:10107800D000002080B586B002AF0E4B5A690D4BE8
:10108800DB68D31AFB604FF00003BB600A4B6A466B
:1010980003F1040103C982E803001B68F868B96812
:1010A800064AFFF73FFA78607B68184607F1100791
:1010B800BD4680BDF0000020C4000020B000002024
:1010C800B0B584B002AF0C4B1C680B4B5A680B4B85
:1010D8006D4603F1040103C985E803001B68204637
:1010E8001146074AFFF71EFA78607B68184607F131
:1010F8000807BD46B0BD00BFF0000020E400002096
:101108002801002090B587B002AF4FF00003FB60C4
:10111800114B9A69114B1B6AD31ABB600E4BDA69E3
:101128000E4B5B6AD31A7B60BA687B68D2180C4B8B
:101138006C4603F1040103C984E803001B681046E8
:10114800F968084AFFF7EEF938603B68184607F176
:101158001407BD4690BD00BFF000002074010020B8
:10116800840000203C01002080B584B000AF034615
:10117800FB71FB79012B02D1FFF7C4FFF860FB7903
:10118800002B02D1FFF79CFFF860FB79022B02D1FC
:10119800FFF770FFF860F868FFF72EFFF860184651
:1011A80007F11007BD4680BD80B483B000AF7860FA
:1011B8007B68B3F5967F02DD4FF4967306E07B6893
:1011C80013F5967F01DA044B00E07B68184607F1B7
:1011D8000C07BD4680BC7047D4FEFFFFB0B586B093
:1011E80002AF0346FB714FF00003FB60FB79002B55
:1011F80012D1174B5C69164B1A69164B6D4603F1F1
:10120800040103C985E803001B6820461146124AF9
:10121800FFF788F9F86011E00D4BDC680C4B9A6811
:101228000C4B6D4603F1040103C985E803001B68F4
:1012380020461146094AFFF775F9F860F868FFF784
:10124800B3FFF860FB68184607F11007BD46B0BD4C
:10125800F00000205C010020140100209C00002008
:1012680080B483B000AF03463960FB7197F907304B
:10127800002B0DDA0E49FB7903F00F03A3F10403E9
:101288003A68D2B24FEA0212D2B2CB181A760AE002
:10129800084997F907303A68D2B24FEA0212D2B237
:1012A800CB1883F8002307F10C07BD4680BC7047B4
:1012B80000ED00E000E100E080B582B000AF7860AA
:1012C8007A686FF07F439A4202D94FF0010316E023
:1012D8000D4B7A6822F07F4202F1FF325A604FF0DC
:1012E800FF304FF00F01FFF7BBFF074B4FF0000235
:1012F8009A60054B4FF003021A604FF0000318463E
:1013080007F10807BD4680BD10E000E080B582B057
:1013180000AF4FF0080000F0B5FF00F0C7FF78609D
:101328004FF00003184607F10807BD4680BD00BF0F
:1013380080B500AF0A4B0A4A526922F400425A614A
:101348004FF0320000F040F9054B054A526942F46B
:1013580000425A614FF0320000F036F9EAE700BF68
:101368000000024080B582B000AF4B4B4FF0000246
:101378005A60494B4FF00002DA60474B4FF00002C9
:101388005A61454B4FF000029A60434B4FF0000200
:101398001A614FF01500FFF78FFF4FF0010000F0C2
:1013A8009DF900F039FBFFF7CDFA00F05FFE00F081
:1013B80001FF00F051FC00F05BF900F0BDF9374B7C
:1013C800364A526942F400425A614FF47A7000F08A
:1013D800FBF8324B314A526922F400425A61FFF756
:1013E80043F900F0CBFBFFF765FBFEF7E1FF2C4B61
:1013F8001A6A294B9A612A4B5A6A274BDA6129489B
:10140800FEF7FEFF27484FF0010144F62062FFF780
:1014180033F8224B214A526922F400425A6100E013
:1014280000BFFFF773FF0346002B03D000F0A6FBB5
:10143800FFF77EFF1C4B5B78DBB2012B07D1FFF770
:1014480071F9FEF7B5FF184B4FF000025A70164BB2
:10145800DB78DBB2012BE3D10F4B1B68184613492D
:101468004FF00A02FFF718FC0346184600F06CFE1E
:101478000F4800F069FE084B5B6818460B494FF0AF
:101488000A02FFF709FC0346184600F05DFE09480A
:1014980000F05AFEC4E700BFF00000200000024040
:1014A800740100209C0100206801002050010020E8
:1014B800C4290008C829000880B400AF134B134A98
:1014C800128A92B222F0010292B21A82104B4FF0A5
:1014D80001025A700F4B1A6840F22B139A4206DC2D
:1014E8000C4B1B6803F101020A4B1A6007E0094B19
:1014F8004FF000021A60064B4FF00102DA70044BFD
:101508004FF000029A70BD4680BC7047000400404E
:10151800680100205C00002080B400AF134B9B885A
:101528009BB2DAB2124B1A70124B4FF001021A71C9
:10153800114B1B78002B06D0104B104A526922F42D
:1015480000425A6105E00D4B0C4A526942F40042D0
:101558005A61094B1B78002B14BF00230123DBB20F
:101568001A46054B1A70BD4680BC704700480040BB
:10157800F40100206801002018000020000002404B
:1015880080B400AF054B054A128A92B222F00102DC
:1015980092B21A82BD4680BC704700BF000001406D
:1015A80080B483B000AF7860064B7A681A6000BFD9
:1015B800044B1B68002BFBD107F10C07BD4680BC10
:1015C800704700BF6000002080B483B000AF78602F
:1015D8007B684FF47A7202FB03F2064B1A6000BF75
:1015E800044B1B68002BFBD107F10C07BD4680BCE0
:1015F800704700BF6000002080B400AF044B1B6838
:1016080003F1FF32024B1A60BD4680BC704700BF31
:101618006000002080B400AFBD4680BC704700BFAA
:1016280080B400AFFEE700BF80B400AFFEE700BFA4
:1016380080B400AFFEE700BF80B400AFFEE700BF94
:1016480080B400AFBD4680BC704700BF80B400AF17
:10165800BD4680BC704700BF80B400AFBD4680BCAB
:10166800704700BF80B500AFFFF7C6FF80BD00BF61
:1016780080B400AF0A4B0A4A126B42F001021A63A7
:10168800084B084A126822F040421A60054B054A86
:10169800126842F080421A60BD4680BC704700BFA5
:1016A800003802400000024080B483B000AF034617
:1016B800FB71094B97F907204FEA5212F97901F0AB
:1016C8001F014FF0010000FA01F143F8221007F161
:1016D8000C07BD4680BC704700E100E080B582B0D1
:1016E80000AF0346FB80124B114A126C42F0020213
:1016F8001A64104B4AF210421A850E4BFA88DA62C5
:101708000C4B0C4A928992B242F0010292B29A8131
:10171800084B084A128892B242F0010292B21A802B
:101728004FF01D00FFF7C0FF07F10807BD4680BD59
:10173800003802400004004080B500AF534B534AC4
:10174800126B42F002021A63504B504A126C42F478
:1017580080421A644E4B4E4A126842F000621A6088
:101768004B4B4B4A926842F000629A60484B484A99
:10177800526A42F4A0025A62454B454A126842F046
:1017880000521A60424B424A926842F000529A60F4
:101798003F4B3F4A526A42F0A0625A623C4B3C4A75
:1017A800126842F000421A60394B394A926842F096
:1017B80000429A60364B364A526A42F0A0425A6258
:1017C800334B334A126842F080721A60304B304A09
:1017D800926842F000729A602E4B2E4A128892B29A
:1017E80042F0040292B21A802A4B2A4A128892B214
:1017F80042F0180292B21A80264B264A128892B2F8
:1018080042F4006292B21A80224B224A128892B2A3
:1018180042F0020292B21A801E4B1E4A128892B2FD
:1018280042F0010292B21A801A4B1A4A128892B2F6
:1018380042F4007292B21A80164B164A128892B27B
:1018480042F4807292B21A80124B124A128892B2F3
:1018580042F0400292B21A804FF020004FF00C0183
:1018680000F056F84FF020004FF00C0100F050F84F
:101878004FF023004FF0300100F04AF84FF02300FA
:101888004FF0300100F044F880BD00BF003802403E
:10189800000402400038004080B584B000AF034621
:1018A800FB71FB7963F07F03DBB24FEA0323FB8113
:1018B800154B154A526922F480525A61134BFA8922
:1018C8009A8100BF114B1B899BB203F00203002BC6
:1018D800F8D000BF0D4B1B899BB203F00103002B0E
:1018E800F8D00A4B9B89FB8100F04CF8064B064A5E
:1018F800526942F480525A61FB89DBB2184607F1FB
:101908001007BD4680BD00BF0004024000380040FB
:1019180080B584B000AF02460B46FA71BB71174B15
:10192800164A526922F480525A61FB794FEA03231E
:101938009AB2BB799BB213439BB2FB81104BFA89D5
:101948009A8100BF0E4B1B899BB203F00203002B48
:10195800F8D000BF0A4B1B899BB203F08003002B11
:10196800F8D000F00FF8054B044A526942F480524F
:101978005A6107F11007BD4680BD00BF0004024050
:101988000038004080B400AF00BF054B1B899BB2F4
:1019980003F08003002BF8D1BD4680BC704700BF20
:1019A8000038004080B400AF074B074A126B42F082
:1019B80001021A63054B054AD26842F00202DA6056
:1019C800BD4680BC704700BF00380240000002409E
:1019D80080B400AF0D4B0D4A126B42F004021A633B
:1019E8000B4B0B4A126842F014021A60074B074A65
:1019F800126B42F001021A63064B064A126842F063
:101A080050021A60BD4680BC704700BF00380240D3
:101A1800000802400000024080B500AFFFF7D8FF81
:101A2800FFF75AF8FFF7C8F880BD00BF80B582B04D
:101A380000AF78600B46FB70FB78012B0CD1114B83
:101A4800104A526942F004025A610E4B0D4A52691B
:101A580022F002025A610BE00A4B0A4A526922F04C
:101A680004025A61074B074A526942F002025A615E
:101A78007B689BB21846FFF78FF807F10807BD4649
:101A880080BD00BF0008024080B582B000AF78601A
:101A98000B46FB70FB78002B03D1786800F008F840
:101AA80002E0786800F020F807F10807BD4680BD1D
:101AB80080B584B000AF78607B68002B03DD4FF001
:101AC8000103FB7306E04FF00003FB737B68C3F16F
:101AD80000037B60FB7B7868194600F021F807F16A
:101AE8001007BD4680BD00BF80B584B000AF7860E8
:101AF8007B68002B03DD4FF00103FB7306E04FF01A
:101B08000003FB737B68C3F100037B60FB7B786891
:101B18001946FFF78BFF07F11007BD4680BD00BFD0
:101B280080B582B000AF78600B46FB70FB78012B64
:101B38000CD1114B104A526922F008025A610E4B1F
:101B48000D4A526942F004025A610BE00A4B0A4AF4
:101B5800526942F008025A61074B074A526922F05B
:101B680004025A617B689BB21846FFF785F807F1B3
:101B78000807BD4680BD00BF0000024080B500AF29
:101B88004FF00000FFF794FF4FF00000FFF7ACFFA5
:101B98000C4B0C4A526922F004025A61094B094A5B
:101BA800526922F002025A61074B074A526922F031
:101BB80008025A61044B044A526922F004025A612D
:101BC80080BD00BF000802400000024080B582B01E
:101BD80000AF78607B68002B05DD7B68DBB21846B8
:101BE80000F00EF807E07B68DBB2C3F10003DBB25C
:101BF800184600F01BF807F10807BD4680BD00BF76
:101C080080B582B000AF0346FB71FB7918464FF0F0
:101C18000101FFF785FFFB7918464FF00001FFF738
:101C280005FF07F10807BD4680BD00BF80B582B03B
:101C380000AF0346FB71FB7918464FF00001FFF730
:101C48006FFFFB7918464FF00101FFF7EFFE07F130
:101C58000807BD4680BD00BF80B400AF104B104AD6
:101C6800126B42F00E021A630E4B0E4A126842F4CF
:101C780080521A600B4B0B4A126842F480721A6049
:101C8800094B094A126842F010021A60074B074ACA
:101C9800126842F080721A60BD4680BC704700BF6F
:101CA8000038024000040240000C024000080240D4
:101CB80080B584B000AF0346FB71FB79184600F08D
:101CC800E1FA0E4B0D4A526942F040025A614FF058
:101CD8000100FFF765FC00F0E9FAF860074B074AD6
:101CE800526922F040025A614FF00100FFF758FC98
:101CF800FB68184607F11007BD4680BD0004024086
:101D080080B400AF3B4B3B4A126B42F00E021A63A1
:101D1800384B384A126C42F400121A64364B364A71
:101D2800126842F400321A60334B334A526842F464
:101D380080725A60304B304A926842F400329A609E
:101D48002D4B2D4AD26842F48032DA602A4B2A4A57
:101D5800526A42F004025A62274B274A126842F438
:101D680000221A60244B244A926842F400229A60A6
:101D7800214B214A526842F400725A601E4B1E4A97
:101D8800D26842F48022DA601B4B1B4A526A42F046
:101D980040025A62184B184A126842F480521A607C
:101DA800154B154A126842F480721A60134B134A95
:101DB800126842F010021A60114B114A126842F080
:101DC80080721A600F4B0F4A928892B242F02A0230
:101DD80092B29A800B4B4FF0B2029A83094B4FF0A4
:101DE8002D021A84074B4FF001021A80BD4680BCB1
:101DF800704700BF0038024000040240000C024057
:101E0800000802400054004080B400AF00BF054BFA
:101E18001B8B9BB203F00203002BF8D1BD4680BC9C
:101E2800704700BF0054004080B485B000AF024640
:101E38000B46FA71BB71FB794FEA4303DBB243F0FF
:101E48000103DBB2FB73FB794FEA4303BB73434BDC
:101E5800424A128892B242F4807292B21A8000BF4B
:101E68003E4B9B8A9BB203F00103002BF8D03B4BFF
:101E7800BA7B92B21A8200BF384B9B8A9BB203F09E
:101E88000203002BF8D000BF344B9B8A9BB2002B77
:101E9800FAD000BF314B1B8B9BB2002BFAD000BF8E
:101EA8002E4B9B8A9BB203F08003002BF8D02B4B60
:101EB800BA7992B21A8200BF284B9B8A9BB203F070
:101EC8000403002BF8D0254B244A128892B242F41E
:101ED800807292B21A8000BF204B9B8A9BB203F09B
:101EE8000103002BF8D01D4BFA7B92B21A8200BF77
:101EF8001A4B9B8A9BB203F00203002BF8D000BF59
:101F0800164B9B8A9BB2002BFAD000BF134B1B8B3E
:101F18009BB2002BFAD000BF104B9B8A9BB203F0F8
:101F28004003002BF8D00D4B0C4A128892B222F4D1
:101F3800806292B21A80094B1B8A9BB27B73074B53
:101F4800064A128892B242F4007292B21A807B7BDF
:101F5800184607F11407BD4680BC7047005400407E
:101F680080B485B000AF13460246FA710A46BA71CA
:101F78007B71FB794FEA4303FB732E4B2D4A128882
:101F880092B242F4807292B21A8000BF294B9B8AA7
:101F98009BB203F00103002BF8D0264BFA7B92B2D8
:101FA8001A8200BF234B9B8A9BB203F00203002BCB
:101FB800F8D000BF1F4B9B8A9BB2002BFAD000BF02
:101FC8001C4B1B8B9BB2002BFAD000BF194B9B8A72
:101FD8009BB203F08003002BF8D0164BBA7992B26B
:101FE8001A8200BF134B9B8A9BB203F08003002B1D
:101FF800F8D0104B7A7992B21A8200BF0D4B9B8AA7
:102008009BB203F08003002BF8D000BF094B9B8ADA
:102018009BB203F00403002BF8D0064B054A128844
:1020280092B242F4007292B21A8007F11407BD46C8
:1020380080BC70470054004080B483B000AF0346B2
:10204800FB71094B97F907204FEA5212F97901F011
:102058001F014FF0010000FA01F143F8221007F1C7
:102068000C07BD4680BC704700E100E080B400AFBB
:102078001D4B1D4A126B42F004021A631A4B1A4A8E
:10208800126C42F480221A64184B184A126842F4FF
:1020980000121A60154B154A526A42F4E0625A62FD
:1020A800124B124A126842F400021A600F4B0F4A90
:1020B800526A42F4E0425A620D4B4FF0B6021A815E
:1020C8000B4B0B4A928992B242F00C0292B29A815F
:1020D800074B074A928992B242F4005292B29A810F
:1020E800BD4680BC704700BF00380240000802406F
:1020F8000048004080B500AF064B064A928992B26C
:1021080042F0200292B29A814FF02700FFF794FF25
:1021180080BD00BF0048004080B483B000AF0346D4
:10212800FB7100BF074B1B889BB203F08003002B99
:10213800F8D0044BFA7992B29A8007F10C07BD46A1
:1021480080BC70470048004080B584B000AF78601C
:102158004FF00003FB730AE0FB7B7A68D3181B7807
:10216800FA7B02F10102FA731846FFF7D5FFFB7BF1
:102178007A68D3181B78002BEED107F11007BD46FB
:1021880080BD00BF80B483B000AF03E0084B9B88DC
:102198009BB2FB71064B1B889BB203F02003002BFC
:1021A800F4D0FB79184607F10C07BD4680BC704790
:1021B8000048004080B400AF2D4B2D4A126B42F00E
:1021C80003021A632A4B2A4A526C42F480725A64F8
:1021D800284B284A926842F400729A60254B254A97
:1021E800926842F400629A60224B224A926842F452
:1021F80000529A601F4B1F4A926842F400429A604C
:102208001D4B1D4A926842F002029A60194B194A06
:10221800126842F440721A60164B164A126842F469
:1022280040621A60134B134A126842F440521A6013
:10223800104B104A126842F440421A600E4B0E4A84
:10224800126842F003021A600C4B4FF480421A6184
:102258000B4B0B4A526842F480325A60074B074ACC
:10226800926842F001029A60BD4680BC704700BF88
:1022780000380240000002400004024000200140F3
:102288000023014080B483B000AF0346FB71064BC6
:102298004FF00002DA62044BFA795A6307F10C072F
:1022A800BD4680BC704700BF0020014080B400AF2D
:1022B800094B094A926842F080429A6000BF064B77
:1022C8001B6803F00203002BF9D0034BDB6C1846A4
:1022D800BD4680BC704700BF00200140F0290008BF
:1022E800000000201C00002020000020F801002031
:1022F80080F0004002E000BF81F0004142001FBFB3
:102308005FEA410392EA030F7FEA226C7FEA236CBB
:102318006AD04FEA1262D2EB1363C1BFD2184140B0
:1023280048404140B8BF5B42192B88BF704710F046
:10233800004F40F4000020F07F4018BF404211F0E9
:10234800004F41F4000121F07F4118BF494292EA51
:10235800030F3FD0A2F1010241FA03FC10EB0C007D
:10236800C3F1200301FA03F100F0004302D549420A
:1023780060EB4000B0F5000F13D3B0F1807F06D3B7
:1023880040084FEA310102F10102FE2A51D2B1F1AF
:10239800004F40EBC25008BF20F0010040EA0300A4
:1023A8007047490040EB000010F4000FA2F1010251
:1023B800EDD1B0FA80FCACF1080CB2EB0C0200FADB
:1023C8000CF0AABF00EBC25052421843BCBFD04029
:1023D8001843704792F0000F81F4000106BF80F4A3
:1023E80000000132013BB5E74FEA41037FEA226C66
:1023F80018BF7FEA236C21D092EA030F04D092F031
:10240800000F08BF0846704790EA010F1CBF002064
:10241800704712F07F4F04D1400028BF40F00040C1
:10242800704712F100723CBF00F50000704700F0E1
:10243800004343F0FE4040F4000070477FEA226208
:1024480016BF08467FEA23630146420206BF5FEAD9
:10245800412390EA010F40F4800070474FF00003D9
:1024680004E000BF10F0004348BF40425FEA000CA0
:1024780008BF704743F0964301464FF000001CE048
:1024880050EA010208BF70474FF000030AE000BF9E
:1024980050EA010208BF704711F0004302D54042DC
:1024A80061EB41015FEA010C02BF8446014600204E
:1024B80043F0B64308BFA3F18053A3F50003BCFA69
:1024C8008CF2083AA3EBC25310DB01FA02FC634416
:1024D80000FA02FCC2F12002BCF1004F20FA02F21D
:1024E80043EB020008BF20F00100704702F1200210
:1024F80001FA02FCC2F1200250EA4C0021FA02F271
:1025080043EB020008BF20EADC7070474FF0FF0C75
:102518001CEAD0521EBF1CEAD15392EA0C0F93EA70
:102528000C0F6FD01A4480EA010C400218BF5FEA12
:1025380041211ED04FF0006343EA501043EA511185
:10254800A0FB01310CF00040B1F5000F3EBF49007F
:1025580041EAD3715B0040EA010062F17F02FD2A83
:102568001DD8B3F1004F40EBC25008BF20F0010066
:10257800704790F0000F0CF0004C08BF49024CEA7D
:10258800502040EA51207F3AC2BFD2F1FF0340EA0F
:10259800C250704740F400004FF00003013A5DDC80
:1025A80012F1190FDCBF00F000407047C2F10002C1
:1025B800410021FA02F1C2F1200200FA02FC5FEAAE
:1025C800310040F1000053EA4C0308BF20EADC70F8
:1025D800704792F0000F00F0004C02BF400010F46A
:1025E800000F013AF9D040EA0C0093F0000F01F017
:1025F800004C02BF490011F4000F013BF9D041EA39
:102608000C018FE70CEAD15392EA0C0F18BF93EA3A
:102618000C0F0AD030F0004C18BF31F0004CD8D164
:1026280080EA010000F00040704790F0000F17BFEB
:1026380090F0004F084691F0000F91F0004F14D031
:1026480092EA0C0F01D142020FD193EA0C0F03D189
:102658004B0218BF084608D180EA010000F000408C
:1026680040F0FE4040F40000704740F0FE4040F467
:10267800400070474FF0FF0C1CEAD0521EBF1CEA06
:10268800D15392EA0C0F93EA0C0F69D0A2EB030224
:1026980080EA010C49024FEA402037D04FF08053BE
:1026A80043EA111143EA10130CF000408B4238BF83
:1026B8005B0042F17D024FF4000C8B4224BF5B1A91
:1026C80040EA0C00B3EB510F24BFA3EB510340EADF
:1026D8005C00B3EB910F24BFA3EB910340EA9C008D
:1026E800B3EBD10F24BFA3EBD10340EADC001B01FD
:1026F80018BF5FEA1C1CE0D1FD2A3FF650AF8B42A1
:1027080040EBC25008BF20F0010070470CF0004CAD
:102718004CEA50207F32C2BFD2F1FF0340EAC250D8
:10272800704740F400004FF00003013A37E792F099
:10273800000F00F0004C02BF400010F4000F013AF7
:10274800F9D040EA0C0093F0000F01F0004C02BFF2
:10275800490011F4000F013BF9D041EA0C0195E75B
:102768000CEAD15392EA0C0F08D142027FF47DAFF4
:1027780093EA0C0F7FF470AF084676E793EA0C0FE4
:1027880004D14B023FF44CAF08466EE730F0004CE2
:1027980018BF31F0004CCAD130F000427FF45CAF72
:1027A80031F000437FF43CAF5FE700BF4FF0FF3CE0
:1027B80006E000BF4FF0010C02E000BF4FF0010C33
:1027C8004DF804CD4FEA40024FEA41037FEA226CFC
:1027D80018BF7FEA236C11D001B052EA530C18BF1E
:1027E80090EA010F58BFB2EB030088BFC81738BF83
:1027F8006FEAE17018BF40F0010070477FEA226C71
:1028080002D15FEA402C05D17FEA236CE4D15FEA6C
:10281800412CE1D05DF8040B704700BF84460846A0
:102828006146FFE70FB5FFF7C9FF002848BF10F161
:10283800000F0FBD4DF808EDFFF7F4FF0CBF0120A6
:1028480000205DF808FB00BF4DF808EDFFF7EAFF30
:1028580034BF012000205DF808FB00BF4DF808EDEB
:10286800FFF7E0FF94BF012000205DF808FB00BFE0
:102878004DF808EDFFF7D2FF94BF012000205DF866
:1028880008FB00BF4DF808EDFFF7C8FF34BF012073
:1028980000205DF808FB00BF4FEA4002B2F1FE4F8E
:1028A8000FD34FF09E03B3EB12620DD94FEA00230A
:1028B80043F0004310F0004F23FA02F018BF4042E3
:1028C80070474FF00000704712F1610F01D14202CA
:1028D80005D110F0004008BF6FF0004070474FF07E
:1028E8000000704770B542F6E81642F6E815C0F6E3
:1028F8000006C0F60005761BB61007D0043D00247C
:1029080055F8043F01349847A642F9D142F6EC162F
:1029180042F6E815C0F60006C0F60005761B00F082
:1029280053F8B61008D0043D002455F8043F01348C
:102938009847A642F9D170BD70BD00BF002100F0D4
:1029480004B8104B5B58435004310F480F4B4218E2
:102958009A42FFF4F6AF0E4A00F003B8002342F89B
:10296800043B0C4B9A42FFF4F9AF0B48016841F461
:1029780070010160FEF70AFAFFF7B4FFFEF7F2FCF8
:1029880070470000F0290008000000201C0000200B
:1029980020000020F801002088ED00E0FFF7FEBFCE
:1029A800200000000A000000303132333435363759
:1029B8003839616263646566000000002000000029
:1029C8000A00000000000000F8B500BFF8BC08BC11
:1029D8009E467047F8B500BFF8BC08BC9E467047D5
:0429E80011020008D0
:0429EC00E1010008FD
:1029F00000000000007A030A000000000000000050
:0C2A0000010203040607080901000000A1
:042A0C0000000000C6
:040000050800294581
:00000001FF
